{
  "contractName": "SupplyChain",
  "abi": [
    {
      "anonymous": false,
      "inputs": [
        {
          "indexed": false,
          "internalType": "address",
          "name": "from",
          "type": "address"
        },
        {
          "indexed": false,
          "internalType": "string",
          "name": "productid",
          "type": "string"
        },
        {
          "indexed": false,
          "internalType": "string",
          "name": "message",
          "type": "string"
        },
        {
          "indexed": false,
          "internalType": "string",
          "name": "role",
          "type": "string"
        },
        {
          "indexed": false,
          "internalType": "uint256",
          "name": "timestamp",
          "type": "uint256"
        },
        {
          "indexed": false,
          "internalType": "string",
          "name": "entityname",
          "type": "string"
        }
      ],
      "name": "Transfer",
      "type": "event"
    },
    {
      "inputs": [
        {
          "internalType": "string",
          "name": "productid",
          "type": "string"
        },
        {
          "internalType": "string",
          "name": "message",
          "type": "string"
        },
        {
          "internalType": "string",
          "name": "entityname",
          "type": "string"
        },
        {
          "internalType": "string",
          "name": "role",
          "type": "string"
        }
      ],
      "name": "addToBlockchain",
      "outputs": [],
      "stateMutability": "nonpayable",
      "type": "function"
    },
    {
      "inputs": [],
      "name": "getAllTransactions",
      "outputs": [
        {
          "components": [
            {
              "internalType": "address",
              "name": "sender",
              "type": "address"
            },
            {
              "internalType": "string",
              "name": "productid",
              "type": "string"
            },
            {
              "internalType": "string",
              "name": "message",
              "type": "string"
            },
            {
              "internalType": "string",
              "name": "role",
              "type": "string"
            },
            {
              "internalType": "uint256",
              "name": "timestamp",
              "type": "uint256"
            },
            {
              "internalType": "string",
              "name": "entityname",
              "type": "string"
            }
          ],
          "internalType": "struct SupplyChain.TransferStruct[]",
          "name": "",
          "type": "tuple[]"
        }
      ],
      "stateMutability": "view",
      "type": "function",
      "constant": true
    },
    {
      "inputs": [],
      "name": "getTransactionCount",
      "outputs": [
        {
          "internalType": "uint256",
          "name": "",
          "type": "uint256"
        }
      ],
      "stateMutability": "view",
      "type": "function",
      "constant": true
    }
  ],
  "bytecode": "0x608060405234801561001057600080fd5b50610c41806100206000396000f3fe608060405234801561001057600080fd5b50600436106100415760003560e01c806327506f53146100465780632e7700f0146100645780633a6e9b6714610082575b600080fd5b61004e61009e565b60405161005b9190610963565b60405180910390f35b61006c6103a5565b6040516100799190610985565b60405180910390f35b61009c6004803603810190610097919061064e565b6103ae565b005b60606001805480602002602001604051908101604052809291908181526020016000905b8282101561039c57838290600052602060002090600602016040518060c00160405290816000820160009054906101000a900473ffffffffffffffffffffffffffffffffffffffff1673ffffffffffffffffffffffffffffffffffffffff1673ffffffffffffffffffffffffffffffffffffffff16815260200160018201805461014b90610b3b565b80601f016020809104026020016040519081016040528092919081815260200182805461017790610b3b565b80156101c45780601f10610199576101008083540402835291602001916101c4565b820191906000526020600020905b8154815290600101906020018083116101a757829003601f168201915b505050505081526020016002820180546101dd90610b3b565b80601f016020809104026020016040519081016040528092919081815260200182805461020990610b3b565b80156102565780601f1061022b57610100808354040283529160200191610256565b820191906000526020600020905b81548152906001019060200180831161023957829003601f168201915b5050505050815260200160038201805461026f90610b3b565b80601f016020809104026020016040519081016040528092919081815260200182805461029b90610b3b565b80156102e85780601f106102bd576101008083540402835291602001916102e8565b820191906000526020600020905b8154815290600101906020018083116102cb57829003601f168201915b505050505081526020016004820154815260200160058201805461030b90610b3b565b80601f016020809104026020016040519081016040528092919081815260200182805461033790610b3b565b80156103845780601f1061035957610100808354040283529160200191610384565b820191906000526020600020905b81548152906001019060200180831161036757829003601f168201915b505050505081525050815260200190600101906100c2565b50505050905090565b60008054905090565b60016000808282546103c09190610a67565b9250508190555060016040518060c001604052803373ffffffffffffffffffffffffffffffffffffffff16815260200186815260200185815260200183815260200142815260200184815250908060018154018082558091505060019003906000526020600020906006020160009091909190915060008201518160000160006101000a81548173ffffffffffffffffffffffffffffffffffffffff021916908373ffffffffffffffffffffffffffffffffffffffff1602179055506020820151816001019080519060200190610498929190610543565b5060408201518160020190805190602001906104b5929190610543565b5060608201518160030190805190602001906104d2929190610543565b506080820151816004015560a08201518160050190805190602001906104f9929190610543565b5050507ff3ed8fc7c80d8fdf6aae8961cbfaeceb656bbcc8d14b30c2374d9a85c12e3ed0338585844287604051610535969594939291906108e6565b60405180910390a150505050565b82805461054f90610b3b565b90600052602060002090601f01602090048101928261057157600085556105b8565b82601f1061058a57805160ff19168380011785556105b8565b828001600101855582156105b8579182015b828111156105b757825182559160200191906001019061059c565b5b5090506105c591906105c9565b5090565b5b808211156105e25760008160009055506001016105ca565b5090565b60006105f96105f4846109d1565b6109a0565b90508281526020810184848401111561061157600080fd5b61061c848285610af9565b509392505050565b600082601f83011261063557600080fd5b81356106458482602086016105e6565b91505092915050565b6000806000806080858703121561066457600080fd5b600085013567ffffffffffffffff81111561067e57600080fd5b61068a87828801610624565b945050602085013567ffffffffffffffff8111156106a757600080fd5b6106b387828801610624565b935050604085013567ffffffffffffffff8111156106d057600080fd5b6106dc87828801610624565b925050606085013567ffffffffffffffff8111156106f957600080fd5b61070587828801610624565b91505092959194509250565b600061071d838361082a565b905092915050565b61072e81610abd565b82525050565b61073d81610abd565b82525050565b600061074e82610a11565b6107588185610a34565b93508360208202850161076a85610a01565b8060005b858110156107a657848403895281516107878582610711565b945061079283610a27565b925060208a0199505060018101905061076e565b50829750879550505050505092915050565b60006107c382610a1c565b6107cd8185610a45565b93506107dd818560208601610b08565b6107e681610bfa565b840191505092915050565b60006107fc82610a1c565b6108068185610a56565b9350610816818560208601610b08565b61081f81610bfa565b840191505092915050565b600060c0830160008301516108426000860182610725565b506020830151848203602086015261085a82826107b8565b9150506040830151848203604086015261087482826107b8565b9150506060830151848203606086015261088e82826107b8565b91505060808301516108a360808601826108c8565b5060a083015184820360a08601526108bb82826107b8565b9150508091505092915050565b6108d181610aef565b82525050565b6108e081610aef565b82525050565b600060c0820190506108fb6000830189610734565b818103602083015261090d81886107f1565b9050818103604083015261092181876107f1565b9050818103606083015261093581866107f1565b905061094460808301856108d7565b81810360a083015261095681846107f1565b9050979650505050505050565b6000602082019050818103600083015261097d8184610743565b905092915050565b600060208201905061099a60008301846108d7565b92915050565b6000604051905081810181811067ffffffffffffffff821117156109c7576109c6610bcb565b5b8060405250919050565b600067ffffffffffffffff8211156109ec576109eb610bcb565b5b601f19601f8301169050602081019050919050565b6000819050602082019050919050565b600081519050919050565b600081519050919050565b6000602082019050919050565b600082825260208201905092915050565b600082825260208201905092915050565b600082825260208201905092915050565b6000610a7282610aef565b9150610a7d83610aef565b9250827fffffffffffffffffffffffffffffffffffffffffffffffffffffffffffffffff03821115610ab257610ab1610b6d565b5b828201905092915050565b6000610ac882610acf565b9050919050565b600073ffffffffffffffffffffffffffffffffffffffff82169050919050565b6000819050919050565b82818337600083830152505050565b60005b83811015610b26578082015181840152602081019050610b0b565b83811115610b35576000848401525b50505050565b60006002820490506001821680610b5357607f821691505b60208210811415610b6757610b66610b9c565b5b50919050565b7f4e487b7100000000000000000000000000000000000000000000000000000000600052601160045260246000fd5b7f4e487b7100000000000000000000000000000000000000000000000000000000600052602260045260246000fd5b7f4e487b7100000000000000000000000000000000000000000000000000000000600052604160045260246000fd5b6000601f19601f830116905091905056fea26469706673582212207873312f983988f8fef9898522656a7ec1bc005af6a457e2a684547aaff5ed3564736f6c63430008000033",
  "immutableReferences": {},
  "source": "// SPDX-License-Identifier: GPL-3.0\r\npragma solidity >=0.8.0;\r\n\r\ncontract SupplyChain {\r\n    uint256 transactionCount;\r\n\r\n    event Transfer(\r\n        address from,\r\n        string productid,\r\n        string message,\r\n        string role,\r\n        uint256 timestamp,\r\n        string entityname\r\n    );\r\n\r\n    struct TransferStruct {\r\n        address sender;\r\n        string productid;\r\n        string message;\r\n        string role;\r\n        uint256 timestamp;\r\n        string entityname;\r\n    }\r\n\r\n    TransferStruct[] transactions;\r\n\r\n    function addToBlockchain(\r\n        string memory productid,\r\n        string memory message,\r\n        string memory entityname,\r\n        string memory role\r\n    ) public {\r\n        transactionCount += 1;\r\n        transactions.push(\r\n            TransferStruct(\r\n                msg.sender,\r\n                productid,\r\n                message,\r\n                role,\r\n                block.timestamp,\r\n                entityname\r\n            )\r\n        );\r\n\r\n        emit Transfer(\r\n            msg.sender,\r\n            productid,\r\n            message,\r\n            role,\r\n            block.timestamp,\r\n            entityname\r\n        );\r\n    }\r\n\r\n    function getAllTransactions()\r\n        public\r\n        view\r\n        returns (TransferStruct[] memory)\r\n    {\r\n        return transactions;\r\n    }\r\n\r\n    function getTransactionCount() public view returns (uint256) {\r\n        return transactionCount;\r\n    }\r\n}\r\n",
  "sourcePath": "C:\\Users\\Ammar\\Desktop\\supplychain truffle\\smartcontracts\\contracts\\SupplyChain.sol",
  "compiler": {
    "name": "solc",
    "version": "0.8.0+commit.c7dfd78e.Emscripten.clang"
  },
  "schemaVersion": "3.4.10",
  "updatedAt": "2022-09-29T17:38:04.122Z",
  "networkType": "ethereum",
  "devdoc": {
    "kind": "dev",
    "methods": {},
    "version": 1
  },
  "userdoc": {
    "kind": "user",
    "methods": {},
    "version": 1
  }
}